{
  "_format": "hh-sol-artifact-1",
  "contractName": "TaskStorage",
  "sourceName": "contracts/TaskStorage.sol",
  "abi": [
    {
      "inputs": [],
      "stateMutability": "nonpayable",
      "type": "constructor"
    },
    {
      "anonymous": false,
      "inputs": [
        {
          "indexed": true,
          "internalType": "uint256",
          "name": "id",
          "type": "uint256"
        },
        {
          "indexed": false,
          "internalType": "string",
          "name": "title",
          "type": "string"
        },
        {
          "indexed": true,
          "internalType": "address",
          "name": "userId",
          "type": "address"
        },
        {
          "indexed": false,
          "internalType": "string",
          "name": "status",
          "type": "string"
        },
        {
          "indexed": false,
          "internalType": "uint256",
          "name": "timestamp",
          "type": "uint256"
        }
      ],
      "name": "TaskCreated",
      "type": "event"
    },
    {
      "anonymous": false,
      "inputs": [
        {
          "indexed": true,
          "internalType": "uint256",
          "name": "id",
          "type": "uint256"
        },
        {
          "indexed": false,
          "internalType": "uint256",
          "name": "timestamp",
          "type": "uint256"
        }
      ],
      "name": "TaskDeleted",
      "type": "event"
    },
    {
      "anonymous": false,
      "inputs": [
        {
          "indexed": true,
          "internalType": "uint256",
          "name": "id",
          "type": "uint256"
        },
        {
          "indexed": false,
          "internalType": "string",
          "name": "title",
          "type": "string"
        },
        {
          "indexed": false,
          "internalType": "string",
          "name": "status",
          "type": "string"
        },
        {
          "indexed": false,
          "internalType": "uint256",
          "name": "timestamp",
          "type": "uint256"
        }
      ],
      "name": "TaskUpdated",
      "type": "event"
    },
    {
      "inputs": [],
      "name": "admin",
      "outputs": [
        {
          "internalType": "address",
          "name": "",
          "type": "address"
        }
      ],
      "stateMutability": "view",
      "type": "function"
    },
    {
      "inputs": [
        {
          "internalType": "uint256",
          "name": "_id",
          "type": "uint256"
        },
        {
          "internalType": "string",
          "name": "_title",
          "type": "string"
        },
        {
          "internalType": "string",
          "name": "_description",
          "type": "string"
        },
        {
          "internalType": "address",
          "name": "_userId",
          "type": "address"
        },
        {
          "internalType": "string",
          "name": "_status",
          "type": "string"
        }
      ],
      "name": "createTask",
      "outputs": [],
      "stateMutability": "nonpayable",
      "type": "function"
    },
    {
      "inputs": [
        {
          "internalType": "uint256",
          "name": "_id",
          "type": "uint256"
        }
      ],
      "name": "getTask",
      "outputs": [
        {
          "components": [
            {
              "internalType": "uint256",
              "name": "id",
              "type": "uint256"
            },
            {
              "internalType": "string",
              "name": "title",
              "type": "string"
            },
            {
              "internalType": "string",
              "name": "description",
              "type": "string"
            },
            {
              "internalType": "address",
              "name": "userId",
              "type": "address"
            },
            {
              "internalType": "string",
              "name": "status",
              "type": "string"
            },
            {
              "internalType": "uint256",
              "name": "timestamp",
              "type": "uint256"
            },
            {
              "internalType": "bool",
              "name": "isDeleted",
              "type": "bool"
            }
          ],
          "internalType": "struct TaskStorage.Task",
          "name": "",
          "type": "tuple"
        }
      ],
      "stateMutability": "view",
      "type": "function"
    },
    {
      "inputs": [
        {
          "internalType": "uint256",
          "name": "_id",
          "type": "uint256"
        }
      ],
      "name": "softDeleteTask",
      "outputs": [],
      "stateMutability": "nonpayable",
      "type": "function"
    },
    {
      "inputs": [],
      "name": "taskCount",
      "outputs": [
        {
          "internalType": "uint256",
          "name": "",
          "type": "uint256"
        }
      ],
      "stateMutability": "view",
      "type": "function"
    },
    {
      "inputs": [
        {
          "internalType": "uint256",
          "name": "",
          "type": "uint256"
        }
      ],
      "name": "tasks",
      "outputs": [
        {
          "internalType": "uint256",
          "name": "id",
          "type": "uint256"
        },
        {
          "internalType": "string",
          "name": "title",
          "type": "string"
        },
        {
          "internalType": "string",
          "name": "description",
          "type": "string"
        },
        {
          "internalType": "address",
          "name": "userId",
          "type": "address"
        },
        {
          "internalType": "string",
          "name": "status",
          "type": "string"
        },
        {
          "internalType": "uint256",
          "name": "timestamp",
          "type": "uint256"
        },
        {
          "internalType": "bool",
          "name": "isDeleted",
          "type": "bool"
        }
      ],
      "stateMutability": "view",
      "type": "function"
    },
    {
      "inputs": [
        {
          "internalType": "uint256",
          "name": "_id",
          "type": "uint256"
        },
        {
          "internalType": "string",
          "name": "_title",
          "type": "string"
        },
        {
          "internalType": "string",
          "name": "_description",
          "type": "string"
        },
        {
          "internalType": "string",
          "name": "_status",
          "type": "string"
        }
      ],
      "name": "updateTask",
      "outputs": [],
      "stateMutability": "nonpayable",
      "type": "function"
    }
  ],
  "bytecode": "0x608060405234801561001057600080fd5b50336000806101000a81548173ffffffffffffffffffffffffffffffffffffffff021916908373ffffffffffffffffffffffffffffffffffffffff160217905550611688806100606000396000f3fe608060405234801561001057600080fd5b506004361061007d5760003560e01c80638d9776721161005b5780638d977672146100ea578063b6cb58a514610120578063e39753591461013e578063f851a4401461015a5761007d565b80631d65e77e146100825780631e57f8d0146100b2578063657b301f146100ce575b600080fd5b61009c60048036038101906100979190610e23565b610178565b6040516100a99190611332565b60405180910390f35b6100cc60048036038101906100c79190610e4c565b61043a565b005b6100e860048036038101906100e39190610f0b565b61066e565b005b61010460048036038101906100ff9190610e23565b610898565b604051610117979695949392919061136f565b60405180910390f35b610128610a9f565b6040516101359190611354565b60405180910390f35b61015860048036038101906101539190610e23565b610aa5565b005b610162610c75565b60405161016f9190611252565b60405180910390f35b610180610c99565b6000600160008481526020019081526020016000206000015414156101da576040517f08c379a00000000000000000000000000000000000000000000000000000000081526004016101d1906112b2565b60405180910390fd5b600160008381526020019081526020016000206040518060e0016040529081600082015481526020016001820180546102129061150b565b80601f016020809104026020016040519081016040528092919081815260200182805461023e9061150b565b801561028b5780601f106102605761010080835404028352916020019161028b565b820191906000526020600020905b81548152906001019060200180831161026e57829003601f168201915b505050505081526020016002820180546102a49061150b565b80601f01602080910402602001604051908101604052809291908181526020018280546102d09061150b565b801561031d5780601f106102f25761010080835404028352916020019161031d565b820191906000526020600020905b81548152906001019060200180831161030057829003601f168201915b505050505081526020016003820160009054906101000a900473ffffffffffffffffffffffffffffffffffffffff1673ffffffffffffffffffffffffffffffffffffffff1673ffffffffffffffffffffffffffffffffffffffff16815260200160048201805461038c9061150b565b80601f01602080910402602001604051908101604052809291908181526020018280546103b89061150b565b80156104055780601f106103da57610100808354040283529160200191610405565b820191906000526020600020905b8154815290600101906020018083116103e857829003601f168201915b50505050508152602001600582015481526020016006820160009054906101000a900460ff1615151515815250509050919050565b60008054906101000a900473ffffffffffffffffffffffffffffffffffffffff1673ffffffffffffffffffffffffffffffffffffffff163373ffffffffffffffffffffffffffffffffffffffff16146104c8576040517f08c379a00000000000000000000000000000000000000000000000000000000081526004016104bf90611312565b60405180910390fd5b6040518060e001604052808681526020018581526020018481526020018373ffffffffffffffffffffffffffffffffffffffff168152602001828152602001428152602001600015158152506001600087815260200190815260200160002060008201518160000155602082015181600101908051906020019061054d929190610cee565b50604082015181600201908051906020019061056a929190610cee565b5060608201518160030160006101000a81548173ffffffffffffffffffffffffffffffffffffffff021916908373ffffffffffffffffffffffffffffffffffffffff16021790555060808201518160040190805190602001906105ce929190610cee565b5060a0820151816005015560c08201518160060160006101000a81548160ff0219169083151502179055509050506002600081548092919061060f9061153d565b91905055508173ffffffffffffffffffffffffffffffffffffffff16857fcdfafc86a5cc223e4a8a9219386211f9634be4ef98afaf472b6932badc0ce4cc86844260405161065f9392919061126d565b60405180910390a35050505050565b60008054906101000a900473ffffffffffffffffffffffffffffffffffffffff1673ffffffffffffffffffffffffffffffffffffffff163373ffffffffffffffffffffffffffffffffffffffff16146106fc576040517f08c379a00000000000000000000000000000000000000000000000000000000081526004016106f390611312565b60405180910390fd5b600060016000868152602001908152602001600020600001541415610756576040517f08c379a000000000000000000000000000000000000000000000000000000000815260040161074d906112b2565b60405180910390fd5b6001600085815260200190815260200160002060060160009054906101000a900460ff16156107ba576040517f08c379a00000000000000000000000000000000000000000000000000000000081526004016107b1906112d2565b60405180910390fd5b826001600086815260200190815260200160002060010190805190602001906107e4929190610cee565b508160016000868152602001908152602001600020600201908051906020019061080f929190610cee565b508060016000868152602001908152602001600020600401908051906020019061083a929190610cee565b50426001600086815260200190815260200160002060050181905550837fe0e23c3446dfa50d675233a22c45258276995bd3802940e52fd5da77d3a6056884834260405161088a9392919061126d565b60405180910390a250505050565b60016020528060005260406000206000915090508060000154908060010180546108c19061150b565b80601f01602080910402602001604051908101604052809291908181526020018280546108ed9061150b565b801561093a5780601f1061090f5761010080835404028352916020019161093a565b820191906000526020600020905b81548152906001019060200180831161091d57829003601f168201915b50505050509080600201805461094f9061150b565b80601f016020809104026020016040519081016040528092919081815260200182805461097b9061150b565b80156109c85780601f1061099d576101008083540402835291602001916109c8565b820191906000526020600020905b8154815290600101906020018083116109ab57829003601f168201915b5050505050908060030160009054906101000a900473ffffffffffffffffffffffffffffffffffffffff1690806004018054610a039061150b565b80601f0160208091040260200160405190810160405280929190818152602001828054610a2f9061150b565b8015610a7c5780601f10610a5157610100808354040283529160200191610a7c565b820191906000526020600020905b815481529060010190602001808311610a5f57829003601f168201915b5050505050908060050154908060060160009054906101000a900460ff16905087565b60025481565b60008054906101000a900473ffffffffffffffffffffffffffffffffffffffff1673ffffffffffffffffffffffffffffffffffffffff163373ffffffffffffffffffffffffffffffffffffffff1614610b33576040517f08c379a0000000000000000000000000000000000000000000000000000000008152600401610b2a90611312565b60405180910390fd5b600060016000838152602001908152602001600020600001541415610b8d576040517f08c379a0000000000000000000000000000000000000000000000000000000008152600401610b84906112b2565b60405180910390fd5b6001600082815260200190815260200160002060060160009054906101000a900460ff1615610bf1576040517f08c379a0000000000000000000000000000000000000000000000000000000008152600401610be8906112f2565b60405180910390fd5b600180600083815260200190815260200160002060060160006101000a81548160ff021916908315150217905550426001600083815260200190815260200160002060050181905550807f67a9271a4e8e3e2f7191c0d22a98928ff8e22637dc3571d8c445a7c5a62c57ea42604051610c6a9190611354565b60405180910390a250565b60008054906101000a900473ffffffffffffffffffffffffffffffffffffffff1681565b6040518060e00160405280600081526020016060815260200160608152602001600073ffffffffffffffffffffffffffffffffffffffff16815260200160608152602001600081526020016000151581525090565b828054610cfa9061150b565b90600052602060002090601f016020900481019282610d1c5760008555610d63565b82601f10610d3557805160ff1916838001178555610d63565b82800160010185558215610d63579182015b82811115610d62578251825591602001919060010190610d47565b5b509050610d709190610d74565b5090565b5b80821115610d8d576000816000905550600101610d75565b5090565b6000610da4610d9f84611424565b6113f3565b905082815260208101848484011115610dbc57600080fd5b610dc78482856114c9565b509392505050565b600081359050610dde81611624565b92915050565b600082601f830112610df557600080fd5b8135610e05848260208601610d91565b91505092915050565b600081359050610e1d8161163b565b92915050565b600060208284031215610e3557600080fd5b6000610e4384828501610e0e565b91505092915050565b600080600080600060a08688031215610e6457600080fd5b6000610e7288828901610e0e565b955050602086013567ffffffffffffffff811115610e8f57600080fd5b610e9b88828901610de4565b945050604086013567ffffffffffffffff811115610eb857600080fd5b610ec488828901610de4565b9350506060610ed588828901610dcf565b925050608086013567ffffffffffffffff811115610ef257600080fd5b610efe88828901610de4565b9150509295509295909350565b60008060008060808587031215610f2157600080fd5b6000610f2f87828801610e0e565b945050602085013567ffffffffffffffff811115610f4c57600080fd5b610f5887828801610de4565b935050604085013567ffffffffffffffff811115610f7557600080fd5b610f8187828801610de4565b925050606085013567ffffffffffffffff811115610f9e57600080fd5b610faa87828801610de4565b91505092959194509250565b610fbf81611481565b82525050565b610fce81611481565b82525050565b610fdd81611493565b82525050565b610fec81611493565b82525050565b6000610ffd82611454565b611007818561145f565b93506110178185602086016114d8565b61102081611613565b840191505092915050565b600061103682611454565b6110408185611470565b93506110508185602086016114d8565b61105981611613565b840191505092915050565b6000611071601383611470565b91507f5461736b20646f6573206e6f74206578697374000000000000000000000000006000830152602082019050919050565b60006110b1600f83611470565b91507f5461736b2069732064656c6574656400000000000000000000000000000000006000830152602082019050919050565b60006110f1601483611470565b91507f5461736b20616c72656164792064656c657465640000000000000000000000006000830152602082019050919050565b6000611131602283611470565b91507f4f6e6c792061646d696e2063616e20706572666f726d2074686973206163746960008301527f6f6e0000000000000000000000000000000000000000000000000000000000006020830152604082019050919050565b600060e0830160008301516111a26000860182611234565b50602083015184820360208601526111ba8282610ff2565b915050604083015184820360408601526111d48282610ff2565b91505060608301516111e96060860182610fb6565b50608083015184820360808601526112018282610ff2565b91505060a083015161121660a0860182611234565b5060c083015161122960c0860182610fd4565b508091505092915050565b61123d816114bf565b82525050565b61124c816114bf565b82525050565b60006020820190506112676000830184610fc5565b92915050565b60006060820190508181036000830152611287818661102b565b9050818103602083015261129b818561102b565b90506112aa6040830184611243565b949350505050565b600060208201905081810360008301526112cb81611064565b9050919050565b600060208201905081810360008301526112eb816110a4565b9050919050565b6000602082019050818103600083015261130b816110e4565b9050919050565b6000602082019050818103600083015261132b81611124565b9050919050565b6000602082019050818103600083015261134c818461118a565b905092915050565b60006020820190506113696000830184611243565b92915050565b600060e082019050611384600083018a611243565b8181036020830152611396818961102b565b905081810360408301526113aa818861102b565b90506113b96060830187610fc5565b81810360808301526113cb818661102b565b90506113da60a0830185611243565b6113e760c0830184610fe3565b98975050505050505050565b6000604051905081810181811067ffffffffffffffff8211171561141a576114196115e4565b5b8060405250919050565b600067ffffffffffffffff82111561143f5761143e6115e4565b5b601f19601f8301169050602081019050919050565b600081519050919050565b600082825260208201905092915050565b600082825260208201905092915050565b600061148c8261149f565b9050919050565b60008115159050919050565b600073ffffffffffffffffffffffffffffffffffffffff82169050919050565b6000819050919050565b82818337600083830152505050565b60005b838110156114f65780820151818401526020810190506114db565b83811115611505576000848401525b50505050565b6000600282049050600182168061152357607f821691505b60208210811415611537576115366115b5565b5b50919050565b6000611548826114bf565b91507fffffffffffffffffffffffffffffffffffffffffffffffffffffffffffffffff82141561157b5761157a611586565b5b600182019050919050565b7f4e487b7100000000000000000000000000000000000000000000000000000000600052601160045260246000fd5b7f4e487b7100000000000000000000000000000000000000000000000000000000600052602260045260246000fd5b7f4e487b7100000000000000000000000000000000000000000000000000000000600052604160045260246000fd5b6000601f19601f8301169050919050565b61162d81611481565b811461163857600080fd5b50565b611644816114bf565b811461164f57600080fd5b5056fea2646970667358221220a968b4d3b690a11fe888f73b55c9eb122d8555d1bc099eca0d7ecdfffab9262164736f6c63430008000033",
  "linkReferences": {},
  "deployedLinkReferences": {}
}