{
    "_format": "hh-sol-artifact-1",
    "contractName": "TaskStorage",
    "sourceName": "contracts/TaskStorage.sol",
    "abi": [
        {
            "inputs": [],
            "stateMutability": "nonpayable",
            "type": "constructor"
        },
        {
            "anonymous": false,
            "inputs": [
                {
                    "indexed": true,
                    "internalType": "uint256",
                    "name": "id",
                    "type": "uint256"
                },
                {
                    "indexed": false,
                    "internalType": "string",
                    "name": "title",
                    "type": "string"
                },
                {
                    "indexed": true,
                    "internalType": "address",
                    "name": "userId",
                    "type": "address"
                },
                {
                    "indexed": false,
                    "internalType": "string",
                    "name": "status",
                    "type": "string"
                },
                {
                    "indexed": false,
                    "internalType": "uint256",
                    "name": "timestamp",
                    "type": "uint256"
                }
            ],
            "name": "TaskCreated",
            "type": "event"
        },
        {
            "anonymous": false,
            "inputs": [
                {
                    "indexed": true,
                    "internalType": "uint256",
                    "name": "id",
                    "type": "uint256"
                },
                {
                    "indexed": false,
                    "internalType": "uint256",
                    "name": "timestamp",
                    "type": "uint256"
                }
            ],
            "name": "TaskDeleted",
            "type": "event"
        },
        {
            "anonymous": false,
            "inputs": [
                {
                    "indexed": true,
                    "internalType": "uint256",
                    "name": "id",
                    "type": "uint256"
                },
                {
                    "indexed": false,
                    "internalType": "string",
                    "name": "oldStatus",
                    "type": "string"
                },
                {
                    "indexed": false,
                    "internalType": "string",
                    "name": "newStatus",
                    "type": "string"
                },
                {
                    "indexed": false,
                    "internalType": "uint256",
                    "name": "timestamp",
                    "type": "uint256"
                }
            ],
            "name": "TaskStatusChanged",
            "type": "event"
        },
        {
            "anonymous": false,
            "inputs": [
                {
                    "indexed": true,
                    "internalType": "uint256",
                    "name": "id",
                    "type": "uint256"
                },
                {
                    "indexed": false,
                    "internalType": "string",
                    "name": "title",
                    "type": "string"
                },
                {
                    "indexed": false,
                    "internalType": "string",
                    "name": "status",
                    "type": "string"
                },
                {
                    "indexed": false,
                    "internalType": "uint256",
                    "name": "timestamp",
                    "type": "uint256"
                }
            ],
            "name": "TaskUpdated",
            "type": "event"
        },
        {
            "anonymous": false,
            "inputs": [
                {
                    "indexed": false,
                    "internalType": "uint256[]",
                    "name": "ids",
                    "type": "uint256[]"
                },
                {
                    "indexed": false,
                    "internalType": "string",
                    "name": "operation",
                    "type": "string"
                },
                {
                    "indexed": false,
                    "internalType": "uint256",
                    "name": "timestamp",
                    "type": "uint256"
                }
            ],
            "name": "TasksBatchProcessed",
            "type": "event"
        },
        {
            "inputs": [],
            "name": "admin",
            "outputs": [
                {
                    "internalType": "address",
                    "name": "",
                    "type": "address"
                }
            ],
            "stateMutability": "view",
            "type": "function"
        },
        {
            "inputs": [
                {
                    "internalType": "uint256[]",
                    "name": "_ids",
                    "type": "uint256[]"
                },
                {
                    "internalType": "string",
                    "name": "_status",
                    "type": "string"
                }
            ],
            "name": "batchUpdateStatus",
            "outputs": [],
            "stateMutability": "nonpayable",
            "type": "function"
        },
        {
            "inputs": [
                {
                    "internalType": "uint256",
                    "name": "_id",
                    "type": "uint256"
                },
                {
                    "internalType": "string",
                    "name": "_title",
                    "type": "string"
                },
                {
                    "internalType": "string",
                    "name": "_description",
                    "type": "string"
                },
                {
                    "internalType": "address",
                    "name": "_userId",
                    "type": "address"
                },
                {
                    "internalType": "string",
                    "name": "_status",
                    "type": "string"
                }
            ],
            "name": "createTask",
            "outputs": [],
            "stateMutability": "nonpayable",
            "type": "function"
        },
        {
            "inputs": [
                {
                    "internalType": "uint256",
                    "name": "_id",
                    "type": "uint256"
                }
            ],
            "name": "deleteTask",
            "outputs": [],
            "stateMutability": "nonpayable",
            "type": "function"
        },
        {
            "inputs": [
                {
                    "internalType": "uint256",
                    "name": "_id",
                    "type": "uint256"
                }
            ],
            "name": "getTask",
            "outputs": [
                {
                    "components": [
                        {
                            "internalType": "uint256",
                            "name": "id",
                            "type": "uint256"
                        },
                        {
                            "internalType": "string",
                            "name": "title",
                            "type": "string"
                        },
                        {
                            "internalType": "string",
                            "name": "description",
                            "type": "string"
                        },
                        {
                            "internalType": "address",
                            "name": "userId",
                            "type": "address"
                        },
                        {
                            "internalType": "string",
                            "name": "status",
                            "type": "string"
                        },
                        {
                            "internalType": "uint256",
                            "name": "timestamp",
                            "type": "uint256"
                        },
                        {
                            "internalType": "bool",
                            "name": "isDeleted",
                            "type": "bool"
                        }
                    ],
                    "internalType": "struct TaskStorage.Task",
                    "name": "",
                    "type": "tuple"
                }
            ],
            "stateMutability": "view",
            "type": "function"
        },
        {
            "inputs": [],
            "name": "taskCount",
            "outputs": [
                {
                    "internalType": "uint256",
                    "name": "",
                    "type": "uint256"
                }
            ],
            "stateMutability": "view",
            "type": "function"
        },
        {
            "inputs": [
                {
                    "internalType": "uint256",
                    "name": "",
                    "type": "uint256"
                }
            ],
            "name": "tasks",
            "outputs": [
                {
                    "internalType": "uint256",
                    "name": "id",
                    "type": "uint256"
                },
                {
                    "internalType": "string",
                    "name": "title",
                    "type": "string"
                },
                {
                    "internalType": "string",
                    "name": "description",
                    "type": "string"
                },
                {
                    "internalType": "address",
                    "name": "userId",
                    "type": "address"
                },
                {
                    "internalType": "string",
                    "name": "status",
                    "type": "string"
                },
                {
                    "internalType": "uint256",
                    "name": "timestamp",
                    "type": "uint256"
                },
                {
                    "internalType": "bool",
                    "name": "isDeleted",
                    "type": "bool"
                }
            ],
            "stateMutability": "view",
            "type": "function"
        },
        {
            "inputs": [
                {
                    "internalType": "uint256",
                    "name": "_id",
                    "type": "uint256"
                },
                {
                    "internalType": "string",
                    "name": "_title",
                    "type": "string"
                },
                {
                    "internalType": "string",
                    "name": "_description",
                    "type": "string"
                },
                {
                    "internalType": "string",
                    "name": "_status",
                    "type": "string"
                }
            ],
            "name": "updateTask",
            "outputs": [],
            "stateMutability": "nonpayable",
            "type": "function"
        }
    ],
    "bytecode": "0x608060405234801561001057600080fd5b50336000806101000a81548173ffffffffffffffffffffffffffffffffffffffff021916908373ffffffffffffffffffffffffffffffffffffffff160217905550612018806100606000396000f3fe608060405234801561001057600080fd5b50600436106100885760003560e01c80638d9776721161005b5780638d97767214610111578063b6cb58a514610147578063d6c30f9f14610165578063f851a4401461018157610088565b80631d65e77e1461008d5780631e57f8d0146100bd578063560f3192146100d9578063657b301f146100f5575b600080fd5b6100a760048036038101906100a291906115a5565b61019f565b6040516100b49190611cb1565b60405180910390f35b6100d760048036038101906100d291906115ce565b6104c7565b005b6100f360048036038101906100ee91906115a5565b610808565b005b61010f600480360381019061010a919061168d565b6109da565b005b61012b600480360381019061012691906115a5565b610cfc565b60405161013e9796959493929190611cee565b60405180910390f35b61014f610f03565b60405161015c9190611cd3565b60405180910390f35b61017f600480360381019061017a9190611535565b610f09565b005b61018961133d565b6040516101969190611b2c565b60405180910390f35b6101a7611361565b81600060016000838152602001908152602001600020600001541415610202576040517f08c379a00000000000000000000000000000000000000000000000000000000081526004016101f990611bf1565b60405180910390fd5b6001600082815260200190815260200160002060060160009054906101000a900460ff1615610266576040517f08c379a000000000000000000000000000000000000000000000000000000000815260040161025d90611c51565b60405180910390fd5b600160008481526020019081526020016000206040518060e00160405290816000820154815260200160018201805461029e90611e9b565b80601f01602080910402602001604051908101604052809291908181526020018280546102ca90611e9b565b80156103175780601f106102ec57610100808354040283529160200191610317565b820191906000526020600020905b8154815290600101906020018083116102fa57829003601f168201915b5050505050815260200160028201805461033090611e9b565b80601f016020809104026020016040519081016040528092919081815260200182805461035c90611e9b565b80156103a95780601f1061037e576101008083540402835291602001916103a9565b820191906000526020600020905b81548152906001019060200180831161038c57829003601f168201915b505050505081526020016003820160009054906101000a900473ffffffffffffffffffffffffffffffffffffffff1673ffffffffffffffffffffffffffffffffffffffff1673ffffffffffffffffffffffffffffffffffffffff16815260200160048201805461041890611e9b565b80601f016020809104026020016040519081016040528092919081815260200182805461044490611e9b565b80156104915780601f1061046657610100808354040283529160200191610491565b820191906000526020600020905b81548152906001019060200180831161047457829003601f168201915b50505050508152602001600582015481526020016006820160009054906101000a900460ff161515151581525050915050919050565b60008054906101000a900473ffffffffffffffffffffffffffffffffffffffff1673ffffffffffffffffffffffffffffffffffffffff163373ffffffffffffffffffffffffffffffffffffffff1614610555576040517f08c379a000000000000000000000000000000000000000000000000000000000815260040161054c90611c71565b60405180910390fd5b6000851415610599576040517f08c379a000000000000000000000000000000000000000000000000000000000815260040161059090611c11565b60405180910390fd5b60006001600087815260200190815260200160002060000154146105f2576040517f08c379a00000000000000000000000000000000000000000000000000000000081526004016105e990611c91565b60405180910390fd5b600073ffffffffffffffffffffffffffffffffffffffff168273ffffffffffffffffffffffffffffffffffffffff161415610662576040517f08c379a000000000000000000000000000000000000000000000000000000000815260040161065990611bd1565b60405180910390fd5b6040518060e001604052808681526020018581526020018481526020018373ffffffffffffffffffffffffffffffffffffffff16815260200182815260200142815260200160001515815250600160008781526020019081526020016000206000820151816000015560208201518160010190805190602001906106e79291906113b6565b5060408201518160020190805190602001906107049291906113b6565b5060608201518160030160006101000a81548173ffffffffffffffffffffffffffffffffffffffff021916908373ffffffffffffffffffffffffffffffffffffffff16021790555060808201518160040190805190602001906107689291906113b6565b5060a0820151816005015560c08201518160060160006101000a81548160ff021916908315150217905550905050600260008154809291906107a990611ecd565b91905055508173ffffffffffffffffffffffffffffffffffffffff16857fcdfafc86a5cc223e4a8a9219386211f9634be4ef98afaf472b6932badc0ce4cc8684426040516107f993929190611b8c565b60405180910390a35050505050565b60008054906101000a900473ffffffffffffffffffffffffffffffffffffffff1673ffffffffffffffffffffffffffffffffffffffff163373ffffffffffffffffffffffffffffffffffffffff1614610896576040517f08c379a000000000000000000000000000000000000000000000000000000000815260040161088d90611c71565b60405180910390fd5b806000600160008381526020019081526020016000206000015414156108f1576040517f08c379a00000000000000000000000000000000000000000000000000000000081526004016108e890611bf1565b60405180910390fd5b6001600082815260200190815260200160002060060160009054906101000a900460ff1615610955576040517f08c379a000000000000000000000000000000000000000000000000000000000815260040161094c90611c51565b60405180910390fd5b600180600084815260200190815260200160002060060160006101000a81548160ff021916908315150217905550426001600084815260200190815260200160002060050181905550817f67a9271a4e8e3e2f7191c0d22a98928ff8e22637dc3571d8c445a7c5a62c57ea426040516109ce9190611cd3565b60405180910390a25050565b60008054906101000a900473ffffffffffffffffffffffffffffffffffffffff1673ffffffffffffffffffffffffffffffffffffffff163373ffffffffffffffffffffffffffffffffffffffff1614610a68576040517f08c379a0000000000000000000000000000000000000000000000000000000008152600401610a5f90611c71565b60405180910390fd5b83600060016000838152602001908152602001600020600001541415610ac3576040517f08c379a0000000000000000000000000000000000000000000000000000000008152600401610aba90611bf1565b60405180910390fd5b6001600082815260200190815260200160002060060160009054906101000a900460ff1615610b27576040517f08c379a0000000000000000000000000000000000000000000000000000000008152600401610b1e90611c51565b60405180910390fd5b6000600160008781526020019081526020016000206004018054610b4a90611e9b565b80601f0160208091040260200160405190810160405280929190818152602001828054610b7690611e9b565b8015610bc35780601f10610b9857610100808354040283529160200191610bc3565b820191906000526020600020905b815481529060010190602001808311610ba657829003601f168201915b5050505050905084600160008881526020019081526020016000206001019080519060200190610bf49291906113b6565b5083600160008881526020019081526020016000206002019080519060200190610c1f9291906113b6565b5082600160008881526020019081526020016000206004019080519060200190610c4a9291906113b6565b50426001600088815260200190815260200160002060050181905550857fe0e23c3446dfa50d675233a22c45258276995bd3802940e52fd5da77d3a60568868542604051610c9a93929190611b8c565b60405180910390a28280519060200120818051906020012014610cf457857f9725742c7dee7af7766ef4a229aed25636094d01c9e0360b80266c4afc1c55b6828542604051610ceb93929190611b8c565b60405180910390a25b505050505050565b6001602052806000526040600020600091509050806000015490806001018054610d2590611e9b565b80601f0160208091040260200160405190810160405280929190818152602001828054610d5190611e9b565b8015610d9e5780601f10610d7357610100808354040283529160200191610d9e565b820191906000526020600020905b815481529060010190602001808311610d8157829003601f168201915b505050505090806002018054610db390611e9b565b80601f0160208091040260200160405190810160405280929190818152602001828054610ddf90611e9b565b8015610e2c5780601f10610e0157610100808354040283529160200191610e2c565b820191906000526020600020905b815481529060010190602001808311610e0f57829003601f168201915b5050505050908060030160009054906101000a900473ffffffffffffffffffffffffffffffffffffffff1690806004018054610e6790611e9b565b80601f0160208091040260200160405190810160405280929190818152602001828054610e9390611e9b565b8015610ee05780601f10610eb557610100808354040283529160200191610ee0565b820191906000526020600020905b815481529060010190602001808311610ec357829003601f168201915b5050505050908060050154908060060160009054906101000a900460ff16905087565b60025481565b60008054906101000a900473ffffffffffffffffffffffffffffffffffffffff1673ffffffffffffffffffffffffffffffffffffffff163373ffffffffffffffffffffffffffffffffffffffff1614610f97576040517f08c379a0000000000000000000000000000000000000000000000000000000008152600401610f8e90611c71565b60405180910390fd5b600083839050118015610fae575060328383905011155b610fed576040517f08c379a0000000000000000000000000000000000000000000000000000000008152600401610fe490611c31565b60405180910390fd5b60005b838390508110156112fc5760006001600086868581811061103a577f4e487b7100000000000000000000000000000000000000000000000000000000600052603260045260246000fd5b90506020020135815260200190815260200160002060000154141580156110c1575060016000858584818110611099577f4e487b7100000000000000000000000000000000000000000000000000000000600052603260045260246000fd5b90506020020135815260200190815260200160002060060160009054906101000a900460ff16155b156112e957600060016000868685818110611105577f4e487b7100000000000000000000000000000000000000000000000000000000600052603260045260246000fd5b905060200201358152602001908152602001600020600401805461112890611e9b565b80601f016020809104026020016040519081016040528092919081815260200182805461115490611e9b565b80156111a15780601f10611176576101008083540402835291602001916111a1565b820191906000526020600020905b81548152906001019060200180831161118457829003601f168201915b5050505050905082600160008787868181106111e6577f4e487b7100000000000000000000000000000000000000000000000000000000600052603260045260246000fd5b90506020020135815260200190815260200160002060040190805190602001906112119291906113b6565b504260016000878786818110611250577f4e487b7100000000000000000000000000000000000000000000000000000000600052603260045260246000fd5b905060200201358152602001908152602001600020600501819055508484838181106112a5577f4e487b7100000000000000000000000000000000000000000000000000000000600052603260045260246000fd5b905060200201357f9725742c7dee7af7766ef4a229aed25636094d01c9e0360b80266c4afc1c55b68285426040516112df93929190611b8c565b60405180910390a2505b80806112f490611ecd565b915050610ff0565b507fac5b85f3b602020d24111f7f393b7f1f294c2e4a46b1dad0440b3891ef260ab283834260405161133093929190611b47565b60405180910390a1505050565b60008054906101000a900473ffffffffffffffffffffffffffffffffffffffff1681565b6040518060e00160405280600081526020016060815260200160608152602001600073ffffffffffffffffffffffffffffffffffffffff16815260200160608152602001600081526020016000151581525090565b8280546113c290611e9b565b90600052602060002090601f0160209004810192826113e4576000855561142b565b82601f106113fd57805160ff191683800117855561142b565b8280016001018555821561142b579182015b8281111561142a57825182559160200191906001019061140f565b5b509050611438919061143c565b5090565b5b8082111561145557600081600090555060010161143d565b5090565b600061146c61146784611da3565b611d72565b90508281526020810184848401111561148457600080fd5b61148f848285611e59565b509392505050565b6000813590506114a681611fb4565b92915050565b60008083601f8401126114be57600080fd5b8235905067ffffffffffffffff8111156114d757600080fd5b6020830191508360208202830111156114ef57600080fd5b9250929050565b600082601f83011261150757600080fd5b8135611517848260208601611459565b91505092915050565b60008135905061152f81611fcb565b92915050565b60008060006040848603121561154a57600080fd5b600084013567ffffffffffffffff81111561156457600080fd5b611570868287016114ac565b9350935050602084013567ffffffffffffffff81111561158f57600080fd5b61159b868287016114f6565b9150509250925092565b6000602082840312156115b757600080fd5b60006115c584828501611520565b91505092915050565b600080600080600060a086880312156115e657600080fd5b60006115f488828901611520565b955050602086013567ffffffffffffffff81111561161157600080fd5b61161d888289016114f6565b945050604086013567ffffffffffffffff81111561163a57600080fd5b611646888289016114f6565b935050606061165788828901611497565b925050608086013567ffffffffffffffff81111561167457600080fd5b611680888289016114f6565b9150509295509295909350565b600080600080608085870312156116a357600080fd5b60006116b187828801611520565b945050602085013567ffffffffffffffff8111156116ce57600080fd5b6116da878288016114f6565b935050604085013567ffffffffffffffff8111156116f757600080fd5b611703878288016114f6565b925050606085013567ffffffffffffffff81111561172057600080fd5b61172c878288016114f6565b91505092959194509250565b61174181611e11565b82525050565b61175081611e11565b82525050565b60006117628385611dde565b93507f07ffffffffffffffffffffffffffffffffffffffffffffffffffffffffffffff83111561179157600080fd5b6020830292506117a2838584611e59565b82840190509392505050565b6117b781611e23565b82525050565b6117c681611e23565b82525050565b60006117d782611dd3565b6117e18185611def565b93506117f1818560208601611e68565b6117fa81611fa3565b840191505092915050565b600061181082611dd3565b61181a8185611e00565b935061182a818560208601611e68565b61183381611fa3565b840191505092915050565b600061184b601483611e00565b91507f496e76616c6964207573657220616464726573730000000000000000000000006000830152602082019050919050565b600061188b601383611e00565b91507f5461736b20646f6573206e6f74206578697374000000000000000000000000006000830152602082019050919050565b60006118cb600f83611e00565b91507f496e76616c6964207461736b20494400000000000000000000000000000000006000830152602082019050919050565b600061190b601283611e00565b91507f496e76616c69642062617463682073697a6500000000000000000000000000006000830152602082019050919050565b600061194b601583611e00565b91507f5461736b20686173206265656e2064656c6574656400000000000000000000006000830152602082019050919050565b600061198b602283611e00565b91507f4f6e6c792061646d696e2063616e20706572666f726d2074686973206163746960008301527f6f6e0000000000000000000000000000000000000000000000000000000000006020830152604082019050919050565b60006119f1601683611e00565b91507f5461736b20494420616c726561647920657869737473000000000000000000006000830152602082019050919050565b6000611a31600d83611e00565b91507f5354415455535f555044415445000000000000000000000000000000000000006000830152602082019050919050565b600060e083016000830151611a7c6000860182611b0e565b5060208301518482036020860152611a9482826117cc565b91505060408301518482036040860152611aae82826117cc565b9150506060830151611ac36060860182611738565b5060808301518482036080860152611adb82826117cc565b91505060a0830151611af060a0860182611b0e565b5060c0830151611b0360c08601826117ae565b508091505092915050565b611b1781611e4f565b82525050565b611b2681611e4f565b82525050565b6000602082019050611b416000830184611747565b92915050565b60006060820190508181036000830152611b62818587611756565b90508181036020830152611b7581611a24565b9050611b846040830184611b1d565b949350505050565b60006060820190508181036000830152611ba68186611805565b90508181036020830152611bba8185611805565b9050611bc96040830184611b1d565b949350505050565b60006020820190508181036000830152611bea8161183e565b9050919050565b60006020820190508181036000830152611c0a8161187e565b9050919050565b60006020820190508181036000830152611c2a816118be565b9050919050565b60006020820190508181036000830152611c4a816118fe565b9050919050565b60006020820190508181036000830152611c6a8161193e565b9050919050565b60006020820190508181036000830152611c8a8161197e565b9050919050565b60006020820190508181036000830152611caa816119e4565b9050919050565b60006020820190508181036000830152611ccb8184611a64565b905092915050565b6000602082019050611ce86000830184611b1d565b92915050565b600060e082019050611d03600083018a611b1d565b8181036020830152611d158189611805565b90508181036040830152611d298188611805565b9050611d386060830187611747565b8181036080830152611d4a8186611805565b9050611d5960a0830185611b1d565b611d6660c08301846117bd565b98975050505050505050565b6000604051905081810181811067ffffffffffffffff82111715611d9957611d98611f74565b5b8060405250919050565b600067ffffffffffffffff821115611dbe57611dbd611f74565b5b601f19601f8301169050602081019050919050565b600081519050919050565b600082825260208201905092915050565b600082825260208201905092915050565b600082825260208201905092915050565b6000611e1c82611e2f565b9050919050565b60008115159050919050565b600073ffffffffffffffffffffffffffffffffffffffff82169050919050565b6000819050919050565b82818337600083830152505050565b60005b83811015611e86578082015181840152602081019050611e6b565b83811115611e95576000848401525b50505050565b60006002820490506001821680611eb357607f821691505b60208210811415611ec757611ec6611f45565b5b50919050565b6000611ed882611e4f565b91507fffffffffffffffffffffffffffffffffffffffffffffffffffffffffffffffff821415611f0b57611f0a611f16565b5b600182019050919050565b7f4e487b7100000000000000000000000000000000000000000000000000000000600052601160045260246000fd5b7f4e487b7100000000000000000000000000000000000000000000000000000000600052602260045260246000fd5b7f4e487b7100000000000000000000000000000000000000000000000000000000600052604160045260246000fd5b6000601f19601f8301169050919050565b611fbd81611e11565b8114611fc857600080fd5b50565b611fd481611e4f565b8114611fdf57600080fd5b5056fea2646970667358221220f7d157a3e81fc98a70dbac97cc4d3f57f249a73428b449e03e8cd0b6c3fdd03664736f6c63430008000033",
    "linkReferences": {},
    "deployedLinkReferences": {}
}